{"abi":[{"type":"function","name":"check_different_salts_different_hashes","inputs":[{"name":"salt1","type":"uint256","internalType":"uint256"},{"name":"salt2","type":"uint256","internalType":"uint256"},{"name":"maker","type":"address","internalType":"address"},{"name":"tokenId","type":"uint256","internalType":"uint256"},{"name":"makerAmount","type":"uint256","internalType":"uint256"},{"name":"takerAmount","type":"uint256","internalType":"uint256"}],"outputs":[],"stateMutability":"pure"},{"type":"function","name":"check_domain_separator_deterministic","inputs":[],"outputs":[],"stateMutability":"pure"},{"type":"function","name":"check_ecrecover_returns_signer","inputs":[{"name":"orderHash","type":"bytes32","internalType":"bytes32"},{"name":"v","type":"uint8","internalType":"uint8"},{"name":"r","type":"bytes32","internalType":"bytes32"},{"name":"s","type":"bytes32","internalType":"bytes32"},{"name":"expectedSigner","type":"address","internalType":"address"}],"outputs":[],"stateMutability":"pure"}],"bytecode":{"object":"0x608080604052346015576103a0908161001a8239f35b5f80fdfe60806040526004361015610011575f80fd5b5f3560e01c806318e1b6dc14610145578063475bb481146101115763984937ee1461003a575f80fd5b3461010d5760a036600319011261010d5760243560ff811680910361010d576084356001600160a01b038116919082900361010d575f608060209261007d6102bd565b6040518581019161190160f01b835260228201526004356042820152604281526100a8606282610206565b51902090604051918252848201526044356040820152606435606082015282805260015afa15610102575f516001600160a01b031690811515806100f9575b6100ed57005b6100f7911461023c565b005b508082146100e7565b6040513d5f823e3d90fd5b5f80fd5b3461010d575f36600319011261010d576100f761012c6102bd565b61013e6101376102bd565b821461023c565b151561023c565b3461010d5760c036600319011261010d576044356001600160a01b038116810361010d576100f79060a435906084359060643590602435600435610257565b9193610180935f95979692976101a08501987fa852566c4e14d00869b6db0220888a9090a13eccdaea03713ff0a3d27bf9767c8652602086015260018060a01b0316604085015285606085015285608085015260a084015260c083015260e0820152826101008201528261012082015282610140820152826101608201520152565b90601f8019910116810190811067ffffffffffffffff82111761022857604052565b634e487b7160e01b5f52604160045260245ffd5b1561024357565b634e487b7160e01b5f52600160045260245ffd5b949092918386146102b5576102866102a9926102b39760405161029481610286858c8b8a602086019889610184565b03601f198101835282610206565b51902096604051958694602086019889610184565b519020141561023c565b565b505050505050565b60405160208101907f8b73c3c69bb8fe3d512ecc4cf759cc79239f7b179b0ffacaa9a75d522b39400f82527ff30041e9aac4c4d3a1481d2941dfb0a844a72040e9bbc79a810d1ec5b5d6c7af60408201527fc89efdaa54c0f20c7adf612882df0950f5a951637e0307cdcb4c672f298b8bc6606082015260896080820152734bfb41d5b3570defd03c39a9a4d8de6bd8b8982e60a082015260a0815261036460c082610206565b5190209056fea264697066735822122036df6a55b4cd665518a85970888b1bda7264614175749b9132d25d6443489da964736f6c63430008210033","linkReferences":{}},"methodIdentifiers":{"check_different_salts_different_hashes(uint256,uint256,address,uint256,uint256,uint256)":"18e1b6dc","check_domain_separator_deterministic()":"475bb481","check_ecrecover_returns_signer(bytes32,uint8,bytes32,bytes32,address)":"984937ee"},"storageLayout":{"storage":[],"types":{}},"id":0}