{"abi":[{"type":"function","name":"check_daily_loss_bounded","inputs":[{"name":"startingNav","type":"uint256","internalType":"uint256"},{"name":"maxLossBps","type":"uint256","internalType":"uint256"},{"name":"fillAmount","type":"uint256","internalType":"uint256"}],"outputs":[],"stateMutability":"pure"},{"type":"function","name":"check_no_overflow_in_pnl","inputs":[{"name":"currentPnl","type":"int256","internalType":"int256"},{"name":"fillAmount","type":"uint256","internalType":"uint256"}],"outputs":[],"stateMutability":"pure"},{"type":"function","name":"check_order_size_cap","inputs":[{"name":"orderSize","type":"uint256","internalType":"uint256"},{"name":"maxOrderSize","type":"uint256","internalType":"uint256"}],"outputs":[],"stateMutability":"pure"},{"type":"function","name":"check_position_cap","inputs":[{"name":"currentPositions","type":"uint256","internalType":"uint256"},{"name":"maxPositions","type":"uint256","internalType":"uint256"}],"outputs":[],"stateMutability":"pure"}],"bytecode":{"object":"0x6080806040523460155761023f908161001a8239f35b5f80fdfe60806040526004361015610011575f80fd5b5f3560e01c8063024bb42d14610098578063513756fb14610079578063e757b7ce146100625763feeecd6514610045575f80fd5b3461005e5761005c610056366100ba565b906101f9565b005b5f80fd5b3461005e5761005c610073366100ba565b906101d5565b3461005e57604036600319011261005e5761005c602435600435610177565b3461005e57606036600319011261005e5761005c6044356024356004356100eb565b604090600319011261005e576004359060243590565b156100d757565b634e487b7160e01b5f52600160045260245ffd5b90811590818015610169575b61014f578015801561015e575b61014f5783158015610155575b61014f5780830292830414171561013b57612710900410806101305750565b610139906100d0565b565b634e487b7160e01b5f52601160045260245ffd5b50505050565b50828411610111565b506113888111610104565b5064e8d4a5100083116100f7565b90670de0b6b3a764000081116101c057670de0b6b3a763ffff19821280156101c4575b6101c0575f8183039112908281139283911282169115161761013b5761013990156100d0565b5050565b50670de0b6b3a7640000821361019a565b81156101c05711806101eb575b15806101305750565b6101f4816100d0565b6101e2565b81156101c057101580610130575056fea264697066735822122034414a64598885e3684ab9d7227be8a6dc561b420ab910fdae13de3d6984222e64736f6c63430008210033","linkReferences":{}},"methodIdentifiers":{"check_daily_loss_bounded(uint256,uint256,uint256)":"024bb42d","check_no_overflow_in_pnl(int256,uint256)":"513756fb","check_order_size_cap(uint256,uint256)":"e757b7ce","check_position_cap(uint256,uint256)":"feeecd65"},"storageLayout":{"storage":[],"types":{}},"id":1}